{
  "contractName": "MyContract",
  "abi": [
    {
      "constant": true,
      "inputs": [
        {
          "internalType": "uint256",
          "name": "",
          "type": "uint256"
        }
      ],
      "name": "people",
      "outputs": [
        {
          "internalType": "uint256",
          "name": "id",
          "type": "uint256"
        },
        {
          "internalType": "string",
          "name": "name",
          "type": "string"
        }
      ],
      "payable": false,
      "stateMutability": "view",
      "type": "function"
    },
    {
      "constant": true,
      "inputs": [],
      "name": "peopleCount",
      "outputs": [
        {
          "internalType": "uint256",
          "name": "",
          "type": "uint256"
        }
      ],
      "payable": false,
      "stateMutability": "view",
      "type": "function"
    },
    {
      "constant": false,
      "inputs": [
        {
          "internalType": "string",
          "name": "_name",
          "type": "string"
        }
      ],
      "name": "addPerson",
      "outputs": [],
      "payable": false,
      "stateMutability": "nonpayable",
      "type": "function"
    },
    {
      "constant": true,
      "inputs": [],
      "name": "person",
      "outputs": [
        {
          "internalType": "string",
          "name": "",
          "type": "string"
        }
      ],
      "payable": false,
      "stateMutability": "view",
      "type": "function"
    },
    {
      "constant": true,
      "inputs": [],
      "name": "id",
      "outputs": [
        {
          "internalType": "uint256",
          "name": "",
          "type": "uint256"
        }
      ],
      "payable": false,
      "stateMutability": "view",
      "type": "function"
    }
  ],
  "bytecode": "0x608060405260008055635e67c78c60025534801561001c57600080fd5b506104d78061002c6000396000f3fe608060405234801561001057600080fd5b50600436106100575760003560e01c80630bf2ee8d1461005c578063267c68e01461010457806377ec2b551461011e5780639e7a13ad1461019b578063af640d0f14610237575b600080fd5b6101026004803603602081101561007257600080fd5b81019060208101813564010000000081111561008d57600080fd5b82018360208201111561009f57600080fd5b803590602001918460018302840111640100000000831117156100c157600080fd5b91908080601f01602080910402602001604051908101604052809392919081815260200183838082843760009201919091525092955061023f945050505050565b005b61010c61029e565b60408051918252519081900360200190f35b6101266102a4565b6040805160208082528351818301528351919283929083019185019080838360005b83811015610160578181015183820152602001610148565b50505050905090810190601f16801561018d5780820380516001836020036101000a031916815260200191505b509250505060405180910390f35b6101b8600480360360208110156101b157600080fd5b5035610346565b6040518083815260200180602001828103825283818151815260200191508051906020019080838360005b838110156101fb5781810151838201526020016101e3565b50505050905090810190601f1680156102285780820380516001836020036101000a031916815260200191505b50935050505060405180910390f35b61010c6103ec565b60025442101561024e57600080fd5b6102566103ff565b6040805180820182526000805480835260208084018681529183526001808252949092208351815590518051939491936102989392850192919091019061040a565b50505050565b60005481565b60008054815260016020818152604092839020820180548451600294821615610100026000190190911693909304601f8101839004830284018301909452838352606093909183018282801561033b5780601f106103105761010080835404028352916020019161033b565b820191906000526020600020905b81548152906001019060200180831161031e57829003601f168201915b505050505090505b90565b600160208181526000928352604092839020805481840180548651600296821615610100026000190190911695909504601f810185900485028601850190965285855290949193929091908301828280156103e25780601f106103b7576101008083540402835291602001916103e2565b820191906000526020600020905b8154815290600101906020018083116103c557829003601f168201915b5050505050905082565b6000805481526001602052604090205490565b600080546001019055565b828054600181600116156101000203166002900490600052602060002090601f016020900481019282601f1061044b57805160ff1916838001178555610478565b82800160010185558215610478579182015b8281111561047857825182559160200191906001019061045d565b50610484929150610488565b5090565b61034391905b80821115610484576000815560010161048e56fea265627a7a72315820fc928ee7bfbebe5c6004790857594d6357701b94a5a3a76aefafad3d113fa83e64736f6c63430005100032",
  "source": "pragma solidity 0.5.16;\n\ncontract MyContract {\n  //Person[] public people;\n  \n  uint256 public peopleCount =0;\n  mapping(uint => Person) public people;\n  \n  uint256 openingTime = 1583859596;\n  \n  \n  modifier onlyWhileOpen(){\n      require(block.timestamp >= openingTime);\n      _;\n  }\n  \n  struct Person{\n      uint id;\n      string name;\n  }\n  \n  function addPerson(\n  string memory _name\n  ) public \n    onlyWhileOpen\n    {\n      incrementCount();\n      people[peopleCount] = Person(peopleCount, _name);\n\n  }\n  \n  function incrementCount() internal{\n      peopleCount ++;\n  }\n  function person() view public returns (string memory){\n    return people[peopleCount].name;\n  }  \n  function id() view public returns (uint){\n    return people[peopleCount].id;\n  }    \n}",
  "sourcePath": "C:\\Users\\Meizan\\Test Truffle\\contracts\\MyContract.sol",
  "compiler": {
    "name": "solc",
    "version": "0.5.16+commit.9c3226ce.Emscripten.clang"
  },
  "schemaVersion": "3.0.23",
  "updatedAt": "2020-03-15T16:54:24.251Z",
  "devdoc": {
    "methods": {}
  },
  "userdoc": {
    "methods": {}
  }
}